:100000000C942A000C9452000C9434000C9434008C
:100010000C9434000C9434000C9434000C94340090
:100020000C9434000C9434000C9434000C94340080
:100030000C9434000C9434000C9434000C94340070
:100040000C9434000C9434000C9434000C94340060
:100050000C94340011241FBECFE5D8E0DEBFCDBF25
:100060000E9436000C9471000C9400008BB78064E1
:100070008BBF85B78E7F85BF85B7826085BF8D9A20
:10008000889881B3806C81BB789482B3806C82BB8A
:100090002FE58AEE90E0215080409040E1F700C0CB
:1000A0000000F3CF1F920F920FB60F9211248F937F
:1000B0009F93959A8FE493EC0197F1F700C00000AD
:1000C00092B380EC892782BB8FE493EC0197F1F720
:1000D00000C000009F918F910F900FBE0F901F9056
:0600E0001895F894FFCF13
:00000001FF
