S01800004763634170706C69636174696F6E31342E7372656326
S11300000C942A000C9434000C9434000C943400A6
S11300100C9434000C9434000C9434000C9434008C
S11300200C9434000C9434000C9434000C9434007C
S11300300C9434000C9434000C9434000C9434006C
S11300400C9434000C9434000C9434000C9434005C
S11300500C94340011241FBECFE5D8E0DEBFCDBF21
S11300600E9436000C9479000C9400008D9A8E9AAC
S11300708F9A959896989798959A2FEF83EC99E094
S1130080215080409040E1F700C0000095982FEF88
S113009083EC99E0215080409040E1F700C00000DB
S11300A0969A2FEF83EC99E0215080409040E1F73D
S11300B000C0000096982FEF83EC99E02150804017
S11300C09040E1F700C00000979A2FEF83EC99E08D
S11300D0215080409040E1F700C0000097982FEF36
S11300E083EC99E0215080409040E1F700C000008B
S10900F0C3CFF894FFCF1A
S9030000FC
