S0150000536576656E5F7365676D656E742E73726563BC
S11300000C942A000C9434000C9434000C943400A6
S11300100C9434000C9434000C9434000C9434008C
S11300200C9434000C9434000C9434000C9434007C
S11300300C9434000C9434000C9434000C9434006C
S11300400C9434000C9434000C9434000C9434005C
S11300500C94340011241FBECFE5D8E0DEBFCDBF21
S11300600E9436000C9477000C940000909A919AA8
S113007088988998AB98AA98A39AA29A809B1AC048
S11300800196AC98AD98AE98AF9845B39C01229573
S11300903295307F3227207F3227242B25BBAB9A21
S11300A0AA9A2FEF35EA4EE0215030404040E1F764
S11300B000C00000819BE2CF0197AC98AD98AE9848
S11300C0AF9845B39C0122953295307F3227207F2B
S11300D03227242B25BBAB9AAA9A2FEF35EA4EE0A0
S11300E0215030404040E1F700C00000C7CFF894F1
S10500F0FFCF3C
S9030000FC
