:100000000C942A000C9447000C9447000C94470071
:100010000C9447000C9447000C9447000C94470044
:100020000C9447000C9447000C9447000C94AF07C5
:100030000C9447000C9447000C9447000C94470024
:100040000C9447000C9447000C9447000C94470014
:100050000C94470011241FBECFE5D8E0DEBFCDBF12
:1000600012E0A0E6B0E0E4E0F1E102C005900D92FC
:10007000A63CB107D9F722E0A6ECB2E001C01D9280
:10008000AC3EB207E1F70E9482060C9480080C9403
:1000900000004423A1F0FC013081FB0120813213D8
:1000A00010C0DC011196319690E004C02D91819131
:1000B000281308C09F5F4913F9CF942F03C0942FD2
:1000C00001C090E081E0491380E0089581E00E9442
:1000D00018058FE697E10197F1F700C0000086E070
:1000E0000E9418058BE291E00197F1F700C0000033
:1000F00080E80E9418056FE080ED90E00E946F0597
:1001000061E180EE90E00E9436080E94300608957A
:1001100081E00E9418058FE697E10197F1F700C092
:10012000000086E00E9418058BE291E00197F1F74C
:1001300000C0000080E80E94180560E181EF90E0B7
:100140000E946F0563E182E091E00E9436080E9400
:100150009E04089581E00E9418058FE697E10197BB
:10016000F1F700C0000086E00E9418058BE291E0E4
:100170000197F1F700C0000080E80E9418056FE0C9
:1001800085E191E00E946F0562E185E291E00E94C5
:1001900036080E9466060895CF9381E00E941805F4
:1001A0008FE697E10197F1F700C0000086E00E941A
:1001B00018058BE291E00197F1F700C00000C1E360
:1001C0008AEC92E00E94ED0688EC92E00E9406071D
:1001D0008091CA029091CB02C89F9001C99F300DB7
:1001E0001124ADECBCEC0E947108AC01569547950A
:1001F00056954795569547955093CB024093CA0222
:100200008091C8029091C902C89F9001C99F300D8A
:1002100011240E94710896958795969587959695D5
:1002200087959093C9028093C80263EE72E0CA0179
:100230000E941F076BED72E08091C8029091C90285
:100240000E941F0780E80E94180568E087E391E09C
:100250000E946F0583EE92E00E94520786E70E949B
:10026000520580EC0E94180568E080E491E00E944D
:100270006F058BED92E00E94520786E70E945205BF
:1002800087EC92E00E945B048091C702882329F0EA
:100290008091CD028F5F8093CD029FEF22E587E0B2
:1002A000915020408040E1F700C000008091CD02D5
:1002B000882309F485CFCF9108950E94C00767E194
:1002C00089E491E00E94360868E080E691E00E94AF
:1002D000360868E088E691E00E94360868E080E72A
:1002E00091E00E94360869E088E791E00E943608B4
:1002F00068E081E891E00E9436088FEC92E00E946D
:1003000030088091CF02813359F429E130E040E098
:1003100050E069E170E080E090E00E94DC0726C0D8
:10032000823359F422E330E040E050E062E370E0D1
:1003300080E090E00E94DC0719C0833359F42BE47D
:1003400030E040E050E06BE470E080E090E00E943C
:10035000DC070CC0843351F424E630E040E050E088
:1003600064E670E080E090E00E94DC078091CF02BC
:10037000853319F60E94D30762E080E692E00E947E
:1003800036086AE189E891E00E94360808951092E3
:10039000CE0247E060EC70E081ED92E00E944900FF
:1003A0008093CE028091CE02813011F40E94180613
:1003B00008951092CE0247E068EB70E081ED92E084
:1003C0000E9449008093CE028091CE02813019F4C0
:1003D00082E00E94000608951092CE0247E060EB92
:1003E00070E081ED92E00E9449008093CE028091FE
:1003F000CE02813019F482E00E941806089510920E
:10040000CE0247E068EA70E081ED92E00E94490088
:100410008093CE028091CE02813019F483E00E9455
:10042000000608951092CE0247E060EA70E081ED88
:1004300092E00E9449008093CE028091CE028130EA
:1004400019F483E00E94180608951092CE0247E046
:1004500068E970E081ED92E00E9449008093CE024D
:100460008091CE02813011F40E949204089510927E
:10047000CE0247E060E970E081ED92E00E94490021
:100480008093CE028091CE02813011F40E949804B4
:1004900008951092CE0247E068E870E081ED92E0A6
:1004A0000E9449008093CE028091CE02813011F4E7
:1004B0000E945A0608951092CE0247E060E870E06C
:1004C00081ED92E00E9449008093CE028091CE029D
:1004D000813011F40E94600608951092CE0247E028
:1004E00067E770E081ED92E00E9449008093CE02C0
:1004F0008091CE02813011F40E94CC0008951092B8
:10050000CE0247E06EE670E081ED92E00E94490085
:100510008093CE028091CE02813011F40E945D0161
:1005200008951092CE0247E066E670E081ED92E019
:100530000E9449008093CE028091CE02813029F43E
:100540008091CC028F5F8093CC020895FF920F932D
:100550001F93CF93DF936894FF24F2F806ED12E027
:100560001092CE0264E083EA91E00E94360881E0B6
:100570000E9418058FE697E10197F1F700C000008F
:1005800086E00E9418058BE291E00197F1F700C028
:10059000000080E80E94180562E087EA91E00E946E
:1005A0006F05C1EDD2E0CE010E9430082196C01740
:1005B000D107C9F765E081ED92E00E94360862E05C
:1005C00080E692E00E94360881E00E9418058FE6DE
:1005D00097E10197F1F700C0000086E00E9418053E
:1005E0008BE291E00197F1F700C0000080E80E94E3
:1005F000180565E08AEA91E00E946F059FEF2EE9F9
:1006000084E2915020408040E1F700C0000045E0C6
:1006100060E670E081ED92E00E9449008093CE0296
:100620008091CE02813029F48091C6028F5F809341
:10063000C602FA94F11094CFDF91CF911F910F91E0
:10064000FF9008951092CE0247E068EC70E081EDD3
:1006500092E00E9449008093CE028091CE028130C8
:1006600009F058C00E94A6028091C602843051F55C
:1006700063E080EB91E00E94360881E00E9418055B
:100680008FE697E10197F1F700C0000086E00E9435
:1006900018058BE291E00197F1F700C0000080E8B7
:1006A0000E9418058BE60E94350581E00E94000635
:1006B0009FEF2EE984E2915020408040E1F700C096
:1006C0000000089560E183EB91E00E94360881E02C
:1006D0000E9418058FE697E10197F1F700C000002E
:1006E00086E00E9418058BE291E00197F1F700C0C7
:1006F000000080E80E9418056EE083EC91E00E9403
:100700006F059FEF2BE782E9915020408040E1F791
:1007100000C0000008950F931F93CF93DF9308ED5F
:1007200012E01092C60281E00E9418058FE697E160
:100730000197F1F700C0000086E00E9418058BE2E7
:1007400091E00197F1F700C0000080E80E941805D1
:100750006BE082ED91E00E946F0580EC0E9418052D
:1007600060E18EED91E00E946F056AE18FEE91E00D
:100770000E9436086DE189E092E00E943608C1EDE2
:10078000D2E0CE010E9430082196C017D107C9F7E8
:100790000E9422030E94C7010E94D9010E94EC011D
:1007A0000E94FF010E9412020E9425020E9437024D
:1007B0000E9449020E945B020E946D020E947F0219
:1007C0000E9491028091CC02882309F4AACFDF9184
:1007D000CF911F910F9108956FE086E292E00E9401
:1007E00036086EE185E392E00E9436086FE083E50B
:1007F00092E00E94360860E182E692E00E943608AC
:100800006FE082E792E00E9436086DE081E892E0B6
:100810000E94360868E08EE892E00E9436086EE09A
:1008200086E992E00E94360881E00E9418058FE672
:1008300097E10197F1F700C0000086E00E941805DB
:100840008BE291E00197F1F700C0000080E80E9480
:1008500018056FE084EA92E00E946F0580EC0E9428
:10086000180560E184EB92E00E946F0580ED92E054
:100870000E9430088091D002813319F40E946600F2
:10088000D3CF823319F40E948800CECF833319F47A
:100890000E94AA00C9CF843319F40E94CC00C4CFAF
:1008A000853319F40E945D01BFCF863309F0BCCFB8
:1008B0000E948B03B9CFEF92FF920F931F93CF93B8
:1008C000DF931F92CDB7DEB77C011982AE014F5F77
:1008D0005F4F62E080E390E00E94A2078981882355
:1008E000B9F016E900E0AE014F5F5F4F62E080E3D0
:1008F00090E00E94A207898181110F5F115099F742
:10090000063919F4F701808305C0F701108202C08F
:10091000F70110820F90DF91CF911F910F91FF90FF
:10092000EF90089564E082E390E00E9467070895E5
:1009300064E082E390E00E9473070895CF93C3E0E0
:100940000E9492042FE78CEF9AE021508040904063
:10095000E1F700C000000E9498042FE78CEF9AE0B6
:10096000215080409040E1F700C00000C15041F7A5
:10097000CF910895CF93C82F21E042E067E370E064
:1009800088E390E00E948007C11106C062E088E31E
:1009900090E00E94730707C0C13029F462E088E349
:1009A00090E00E946707CF910895CF93C82F21E070
:1009B00041E067E370E088E390E00E948007C111A6
:1009C00006C061E088E390E00E94730707C0C13071
:1009D00029F461E088E390E00E946707CF910895D1
:1009E000CF93C82F21E043E067E370E088E390E015
:1009F0000E948007C11106C063E088E390E00E9476
:100A0000730707C0C13029F463E088E390E00E94D7
:100A10006707CF91089581E00E94F00484E18A95F0
:100A2000F1F780E00E94F00480E58A95F1F70895DF
:100A3000CF93C82F8BB39CB38F7099272C2F207F17
:100A4000822B9CBB8BBB80E00E94D50480E00E947F
:100A5000BA040E940B0520E1C29FC00111249CBB77
:100A60008BBB0E940B05CF910895CF93C82F8BB3FA
:100A70009CB38F7099272C2F207F822B9CBB8BBB24
:100A800081E00E94D50480E00E94BA040E940B0518
:100A900020E1C29FC00111249CBB8BBB0E940B05AF
:100AA000CF910895CF93C82F8BB39CB38F709927A4
:100AB0002C2F207F822B9CBB8BBB81E00E94D50416
:100AC00080E00E94BA040E940B0520E1C29FC00191
:100AD00011249CBB8BBB0E940B05CF9108950F93F3
:100AE0001F93CF93DF93662371F0EC016150062FC3
:100AF00010E00F5F1F4F080F191F89910E945205C8
:100B0000C017D107D1F7DF91CF911F910F910895B1
:100B100021E042E067E370E088E390E00E94800714
:100B200021E041E067E370E088E390E00E94800705
:100B300021E043E067E370E088E390E00E948007F3
:100B400021E044E06AE370E08BE390E00E948007DC
:100B500021E045E06AE370E08BE390E00E948007CB
:100B600021E046E06AE370E08BE390E00E948007BA
:100B700021E047E06AE370E08BE390E00E948007A9
:100B800080E00E94F0048FE697E10197F1F700C042
:100B9000000083E30E9418058BE291E00197F1F7D2
:100BA00000C0000082E30E9418058BE291E00197EB
:100BB000F1F700C0000088E20E9418058BE291E086
:100BC0000197F1F700C000008FE00E9418058BE24A
:100BD00091E00197F1F700C0000081E00E94180544
:100BE0008FE697E10197F1F700C0000086E00E94D0
:100BF00018058BE291E00197F1F700C0000008951D
:100C0000813031F465E082E390E00E946707089547
:100C1000823031F466E082E390E00E946707089535
:100C2000833029F467E082E390E00E94670708952B
:100C3000813031F465E082E390E00E94730708950B
:100C4000823031F466E082E390E00E9473070895F9
:100C5000833029F467E082E390E00E9473070895EF
:100C6000CF93C5E081E00E94000682E00E9400066A
:100C700083E00E9400062FE78FE492E1215080403C
:100C80009040E1F700C0000081E00E94180682E079
:100C90000E94180683E00E9418062FE78FE492E175
:100CA000215080409040E1F700C00000C150D1F6D3
:100CB000CF91089563E082E390E00E946707089572
:100CC00063E082E390E00E9473070895CF93C5E04C
:100CD0000E945A062FE78FE492E121508040904015
:100CE000E1F700C000000E9460062FE78FE492E168
:100CF000215080409040E1F700C00000C15041F712
:100D0000CF91089521E045E061E370E082E390E057
:100D10000E94800721E046E061E370E082E390E01A
:100D20000E94800721E047E061E370E082E390E009
:100D30000E94800721E044E061E370E082E390E0FC
:100D40000E94800721E043E061E370E082E390E0ED
:100D50000E94800720E042E061E370E082E390E0DF
:100D60000E94800760E08AE390E00E94730761E0E0
:100D70008AE390E00E94730781E00E94180682E0F7
:100D80000E94180683E00E9418060E9498040E94A0
:100D900060060E9488050E9423080E94EC03FDCF94
:100DA00086E890E097B986B980E490E098B987B971
:100DB000089586E890E097B986B981E490E098B903
:100DC00087B9089586B197B1806497B986B90895B7
:100DD00086B197B184FFFCCF0895CF93DF93EC01E8
:100DE0000E94D0060E94E2060E94E80688E78A95E3
:100DF000F1F724B135B185B196B1982F8827822BB0
:100E0000932B99838883DF91CF910895CF93DF93BC
:100E1000EC010E94D9060E94E2060E94E80688E7DB
:100E20008A95F1F724B135B185B196B1982F88270D
:100E3000822B932B99838883DF91CF910895CF9351
:100E4000DF93AC01FB01EB0128969A01ADECBCEC01
:100E50000E947108969587959695879596958795A2
:100E60009C01220F331F880F991F880F991F880F2D
:100E7000991F820F931F9A01281B390BC901C09635
:100E8000819391939A010E947108AC015695479500
:100E90005695479556954795EC17FD07B1F6DF91A6
:100EA000CF910895CF93DF93EC018E810E9452057C
:100EB0008EE20E9452058C810E9452058A810E9416
:100EC000520588810E945205DF91CF910895FC015F
:100ED000408121E030E002C0220F331F6A95E2F723
:100EE000242B20830895FC01908121E030E002C092
:100EF000220F331F6A95E2F7209529232083089556
:100F0000211112C0FB01508121E030E002C0220F0C
:100F1000331F4A95E2F7322F309535233083FC0199
:100F20003081232B20830895213059F4FB01208147
:100F300081E090E002C0880F991F4A95E2F7822B6A
:100F400080830895FC01208181E090E002C0880F39
:100F5000991F6A95E2F78223FA01808308951F9210
:100F60000F920FB60F9211248F938091EB028F5F37
:100F70008093EB028F910F900FBE0F901F901895EA
:100F800010BE1FBC1FBC1EBC8FB590B7816A90BF3E
:100F90008FBD8EB59FB58A609FBD8EBD1BBC1ABC30
:100FA00019BC18BC089510BE1FBC1FBC1EBC1BBCC6
:100FB0001ABC19BC18BC0895CF92DF92EF92FF9231
:100FC000CF93DF9369017A011BBC1ABC19BC18BC12
:100FD000611571058105910599F0CAB5DBB5982FAA
:100FE000872F762F662724E630E040E050E00E940D
:100FF0004F08215031092C2B3D2B3BBD2ABD02C08F
:101000001BBC1ABCC114D104E104F10499F0C8B5A9
:10101000D9B59E2D8D2D7C2D662724E630E040E04D
:1010200050E00E944F08215031092C2B3D2B39BD37
:1010300028BD02C019BC18BCDF91CF91FF90EF9082
:10104000DF90CF9008958AB1886F8AB980B586689D
:1010500080BD83E389B908958CB95D9BFECF089567
:101060005F9BFECF2CB1FC01208308950F931F934B
:10107000CF93DF93662371F0EC016150062F10E0EF
:101080000F5F1F4F080F191F89910E942C08C0176E
:10109000D107D1F7DF91CF911F910F910895A1E270
:1010A0001A2EAA1BBB1BFD010DC0AA1FBB1FEE1FE2
:1010B000FF1FA217B307E407F50720F0A21BB30B2D
:1010C000E40BF50B661F771F881F991F1A9469F7A9
:1010D00060957095809590959B01AC01BD01CF0105
:1010E0000895A29FB001B39FC001A39F700D811D01
:1010F0001124911DB29F700D811D1124911D089521
:04110000F894FFCF91
:1011040070616C697A006573635F6E6F77007077E6
:101114006D5F74657374006164635F7465737400F8
:1011240072656C615F6F660072656C615F6F6E0003
:1011340062757A7A5F6F660062757A7A5F6F6E00A5
:101144006C6564335F6F66006C6564335F6F6E005B
:101154006C6564325F6F66006C6564325F6F6E004D
:101164006C6564315F6F66006C6564315F6F6E003F
:1011740054657374696E67204C4544532E2E2E00BB
:1011840054657374696E67204C4544532E2E2E0AA1
:101194000054657374696E672042555A5A45522E3D
:1011A4002E0054657374696E672042555A5A45522D
:1011B4002E2E2E0A0054657374696E672052454CB6
:1011C40041592E2E0054657374696E672052454C44
:1011D40041592E2E2E0A0041444330203A2020004B
:1011E40041444331203A20200043686F6F736520E7
:1011F400612064757479206379636C65203A0A0010
:101204003129203235250A003229203530250A00BB
:101214003329203735250A00342920313030250A76
:10122400003529204553430A0043686F6F736520D6
:10123400616E6F74686572206F7065726174696F36
:101244006E0A004C610A004C610050414C495A003E
:101254006B0A004C61206272646F20686168626589
:101264006D0A004C61206272646F20686168626577
:101274006D00596F7520617265206E6F77002020B4
:101284002020696E2066726565206D6F6465005963
:101294006F7520617265206E6F7720696E206672AB
:1012A4006565206D6F64650A00506C656173652027
:1012B400656E74657220616E20696E7374727563F5
:1012C40074696F6E0A00414D49545F4C4541524E5A
:1012D400494E470A00506C656173652063686F6FFF
:1012E400736520616E206F7065726174696F6E2022
:1012F4003A0A0031292054657374204C4544532024
:101304000A00322920546573742042555A5A4552B2
:101314000A00332920546573742052454C41590AFC
:101324000034292054657374204144430A0035294C
:101334002050574D0A0036292046524545204D4F2E
:1013440044450A0020414D49545F5F4C4541524E8B
:10135400494E47004F70656E20425420746F2073CD
:06136400746172740000C8
:00000001FF
