:100000000C942A000C9447000C9447000C94470071
:100010000C9447000C9447000C9447000C94470044
:100020000C9447000C9447000C9447000C9424094E
:100030000C9447000C9447000C9447000C94470024
:100040000C9447000C9447000C9447000C94470014
:100050000C94470011241FBECFE5D8E0DEBFCDBF12
:1000600011E0A0E6B0E0E0E6F2E102C005900D92FA
:10007000A234B107D9F721E0A2E4B1E001C01D929A
:10008000A135B207E1F70E9481080C942E090C9467
:100090000000CF93DF93EC010E9411050E9417042A
:1000A0000E9486060E94740587E491E00E94350450
:1000B00080914701811102C0188220C086E491E03E
:1000C0000E946C0480914601811103C081E0888305
:1000D00015C085E491E00E94A3048091450181113F
:1000E00003C082E088830AC084E491E00E94DA04BD
:1000F000809144018111D8CF83E088830E947405E8
:10010000DF91CF910895CF93DF93EC010E946506B4
:100110000E946B050E9432050E9420048BE491E04E
:100120000E94890580914B01811102C0188220C074
:100130008AE491E00E94C00580914A01811103C0C8
:1001400081E0888315C089E491E00E94F7058091E1
:100150004901811103C082E088830AC088E491E0EC
:100160000E942E06809148018111D8CF83E08883B8
:100170000E942004DF91CF910895AF92BF92CF9259
:10018000DF92EF92FF920F931F93CF93DF93CDB740
:10019000DEB72C970FB6F894DEBF0FBECDBF10921E
:1001A0005001FE01319686E0DF011D928A95E9F744
:1001B00086E0ECE2F1E0DE01179601900D928A955F
:1001C000E1F781E00E940707EFE3FFE13197F1F7E4
:1001D00000C0000086E00E9407078FE891E00197C9
:1001E000F1F700C0000080E80E94070761E184EA9F
:1001F00090E00E94410780EC0E9407077E0197E093
:10020000E90EF11CDE0111966D0157018D010E946E
:1002100065060E946B050E9432050E9420048BE453
:1002200091E00E9489058AE491E00E94C00589E47A
:1002300091E00E94F70588E491E00E942E068091EB
:100240004B01882361F380914A01882341F3809117
:100250004901882321F380914801882301F38BE42D
:1002600091E00E9489058AE491E00E94C00589E43A
:1002700091E00E94F70588E491E00E942E068091AB
:100280004B01882361F080914A01882341F08091DD
:100290004901882321F0809148018111E0CF0E941B
:1002A000D70383E491E00E94490082E491E00E9438
:1002B0008300BFEFE0E7F2E0B150E040F040E1F74B
:1002C00000C000000E94DD03E0914301F0E0809156
:1002D0004201EE0FFF1FEE0FFF1FEE5CFE4FE80F17
:1002E000F11D808180934C01843479F08AE20E9470
:1002F000240780914C01D8018D938D01AE15BF0567
:1003000009F085CF843409F07DCFFE01379680E077
:10031000D6012D916D019191291301C08F5FCA14EF
:10032000DB04B1F7863009F040C0809150018F5F47
:100330008093500181E00E940707EFE3FFE13197CE
:10034000F1F700C0000086E00E9407078FE891E007
:100350000197F1F700C0000080E80E94070761E103
:1003600081E790E00E94410780EC0E94070761E16D
:1003700080E690E00E9441070E94D7039FEFADE323
:10038000B9E49150A040B040E1F700C000000E94E5
:10039000DD03EFEFF9E628E1E150F0402040E1F71E
:1003A00000C000000E942C0824C081E00E940707C2
:1003B0008FE39FE10197F1F700C0000086E00E9403
:1003C0000707AFE8B1E01197F1F700C0000080E83F
:1003D0000E94070761E183E990E00E94410780ECF9
:1003E0000E94070761E182E890E00E9441070E94B5
:1003F000E3032C960FB6F894DEBF0FBECDBFDF919E
:10040000CF911F910F91FF90EF90DF90CF90BF9011
:10041000AF90089581E00E9407078FE39FE1019765
:10042000F1F700C0000086E00E9407078FE891E026
:100430000197F1F700C0000080E80E94070761E122
:100440008BE191E00E94410780EC0E94070761E187
:100450008AE091E00E9441078DE491E00E94A003B0
:1004600080914D018823C1F39FEF25EA8EE09150E2
:1004700020408040E1F700C00000089581E00E9424
:1004800007078FE39FE10197F1F700C0000086E0C6
:100490000E9407078FE891E00197F1F700C0000084
:1004A00080E80E94070761E189EF90E00E94410720
:1004B00080EC0E94070761E188EE90E00E9441070E
:1004C0008FE491E00E9432038EE491E00E94690380
:1004D0008DE491E00E94A00380914F01811108C03A
:1004E00080914E01811104C080914D01882341F318
:1004F0009FEF25EA8EE0915020408040E1F700C058
:10050000000080914F018823E9F081E00E940707F5
:100510008FE39FE10197F1F700C0000086E00E94A1
:1005200007078FE891E00197F1F700C0000080E82D
:100530000E94070761E185EB90E00E9441070E945D
:1005400002089CCF80914E018823E9F081E00E944F
:1005500007078FE39FE10197F1F700C0000086E0F5
:100560000E9407078FE891E00197F1F700C00000B3
:1005700080E80E94070761E185EB90E00E94410757
:100580000E9438087BCF80914D01882309F476CFF3
:10059000089581E00E9407078FE39FE10197F1F73B
:1005A00000C0000086E00E9407078FE891E00197F5
:1005B000F1F700C0000080E80E94070761E187EDC5
:1005C00090E00E94410780EC0E94070761E186EC01
:1005D00090E00E9441078FE491E00E9432038DE495
:1005E00091E00E94A00380914F01811104C080918D
:1005F0004D01882381F39FEF25EA8EE09150204042
:100600008040E1F700C0000080914F018823E9F0AD
:1006100081E00E9407078FE39FE10197F1F700C097
:10062000000086E00E9407078FE891E00197F1F74C
:1006300000C0000080E80E94070761E185EB90E0C0
:100640000E9441070E94E303A4CF80914D018823BB
:1006500009F49FCF08950E940A020E943E020E9460
:10066000C9020895EF92FF920F931F93CF93DF93E8
:100670001F92CDB7DEB77C011982AE014F5F5F4F8D
:1006800060E080E390E00E94170989818823B9F037
:1006900016E900E0AE014F5F5F4F60E080E390E05D
:1006A0000E941709898181110F5F115099F706394E
:1006B00019F4F701808305C0F701108202C0F70129
:1006C00010820F90DF91CF911F910F91FF90EF90CB
:1006D0000895EF92FF920F931F93CF93DF931F9292
:1006E000CDB7DEB77C011982AE014F5F5F4F61E08D
:1006F00080E390E00E94170989818823B9F016E908
:1007000000E0AE014F5F5F4F61E080E390E00E9448
:100710001709898181110F5F115099F7063919F472
:10072000F701808305C0F701108202C0F701108233
:100730000F90DF91CF911F910F91FF90EF9008954F
:10074000EF92FF920F931F93CF93DF931F92CDB73A
:10075000DEB77C011982AE014F5F5F4F62E080E33C
:1007600090E00E94170989818823B9F016E900E01A
:10077000AE014F5F5F4F62E080E390E00E94170997
:10078000898181110F5F115099F7063919F4F7012A
:10079000808305C0F701108202C0F70110820F901C
:1007A000DF91CF911F910F91FF90EF90089564E03A
:1007B00082E390E00E94DC08089564E082E390E028
:1007C0000E94E8080895CF93C3E00E94D7032FEF5B
:1007D00085EA9EE0215080409040E1F700C0000093
:1007E0000E94DD032FEF85EA9EE02150804090407B
:1007F000E1F700C00000C15041F7CF91089564E0D7
:1008000085E390E00E94DC08089565E085E390E0D0
:100810000E94DC08089566E085E390E00E94DC0811
:10082000089567E085E390E00E94DC0808950E9447
:10083000FF030E9405040E940B040E941104089506
:1008400064E085E390E00E94E80865E085E390E0DD
:100850000E94E80866E085E390E00E94E80867E00F
:1008600085E390E00E94E8080895EF92FF920F93CD
:100870001F93CF93DF931F92CDB7DEB77C01198210
:10088000AE014F5F5F4F64E083E390E00E94170981
:1008900089818823B9F016E900E0AE014F5F5F4F10
:1008A00064E083E390E00E941709898181110F5F62
:1008B000115099F7063919F4F701808305C0F70143
:1008C000108202C0F70110820F90DF91CF911F912B
:1008D0000F91FF90EF900895EF92FF920F931F9367
:1008E000CF93DF931F92CDB7DEB77C011982AE01A3
:1008F0004F5F5F4F65E083E390E00E9417098981B5
:100900008823B9F016E900E0AE014F5F5F4F65E064
:1009100083E390E00E941709898181110F5F1150D4
:1009200099F7063919F4F701808305C0F7011082A1
:1009300002C0F70110820F90DF91CF911F910F91AC
:10094000FF90EF900895EF92FF920F931F93CF9334
:10095000DF931F92CDB7DEB77C011982AE014F5FE6
:100960005F4F66E083E390E00E9417098981882346
:10097000B9F016E900E0AE014F5F5F4F66E083E338
:1009800090E00E941709898181110F5F115099F73A
:10099000063919F4F701808305C0F701108202C0FF
:1009A000F70110820F90DF91CF911F910F91FF906F
:1009B000EF900895EF92FF920F931F93CF93DF93E1
:1009C0001F92CDB7DEB77C011982AE014F5F5F4F3A
:1009D00067E083E390E00E94170989818823B9F0DA
:1009E00016E900E0AE014F5F5F4F67E083E390E000
:1009F0000E941709898181110F5F115099F70639FB
:100A000019F4F701808305C0F701108202C0F701D5
:100A100010820F90DF91CF911F910F91FF90EF9077
:100A2000089520E044E064E370E085E390E00E94F4
:100A3000F50820E045E064E370E085E390E00E9483
:100A4000F50820E046E064E370E085E390E00E9472
:100A5000F50820E047E064E370E085E390E00E9461
:100A6000F508089521E044E064E370E085E390E058
:100A70000E94F50821E045E064E370E085E390E042
:100A80000E94F50821E046E064E370E085E390E031
:100A90000E94F50821E047E064E370E085E390E020
:100AA0000E94F508089560E085E390E00E94DC086C
:100AB000089561E085E390E00E94DC08089562E01B
:100AC00085E390E00E94DC08089563E085E390E010
:100AD0000E94DC0808950E9453050E9459050E9457
:100AE0005F050E946505089560E085E390E00E943F
:100AF000E80861E085E390E00E94E80862E085E3B1
:100B000090E00E94E80863E085E390E00E94E80836
:100B10000895EF92FF920F931F93CF93DF931F924D
:100B2000CDB7DEB77C011982AE014F5F5F4F60E049
:100B300083E390E00E94170989818823B9F016E9C0
:100B400000E0AE014F5F5F4F60E083E390E00E9402
:100B50001709898181110F5F115099F7063919F42E
:100B6000F701808305C0F701108202C0F7011082EF
:100B70000F90DF91CF911F910F91FF90EF9008950B
:100B8000EF92FF920F931F93CF93DF931F92CDB7F6
:100B9000DEB77C011982AE014F5F5F4F61E083E3F6
:100BA00090E00E94170989818823B9F016E900E0D6
:100BB000AE014F5F5F4F61E083E390E00E94170951
:100BC000898181110F5F115099F7063919F4F701E6
:100BD000808305C0F701108202C0F70110820F90D8
:100BE000DF91CF911F910F91FF90EF900895EF92B9
:100BF000FF920F931F93CF93DF931F92CDB7DEB772
:100C00007C011982AE014F5F5F4F62E083E390E0A9
:100C10000E94170989818823B9F016E900E0AE0126
:100C20004F5F5F4F62E083E390E00E941709898184
:100C300081110F5F115099F7063919F4F70180837C
:100C400005C0F701108202C0F70110820F90DF91FA
:100C5000CF911F910F91FF90EF900895EF92FF9227
:100C60000F931F93CF93DF931F92CDB7DEB77C0115
:100C70001982AE014F5F5F4F63E083E390E00E9413
:100C8000170989818823B9F016E900E0AE014F5FAA
:100C90005F4F63E083E390E00E941709898181112F
:100CA0000F5F115099F7063919F4F701808305C0D9
:100CB000F701108202C0F70110820F90DF91CF91EF
:100CC0001F910F91FF90EF90089520E040E064E3C2
:100CD00070E085E390E00E94F50820E041E064E3E5
:100CE00070E085E390E00E94F50820E042E064E3D4
:100CF00070E085E390E00E94F50820E043E064E3C3
:100D000070E085E390E00E94F508089521E040E05E
:100D100064E370E085E390E00E94F50821E041E0A3
:100D200064E370E085E390E00E94F50821E042E092
:100D300064E370E085E390E00E94F50821E043E081
:100D400064E370E085E390E00E94F5080895CF9396
:100D5000C82F21E042E067E370E088E390E00E9462
:100D6000F508C11106C062E088E390E00E94E8083F
:100D700007C0C13029F462E088E390E00E94DC08FB
:100D8000CF910895CF93C82F21E041E067E370E051
:100D900088E390E00E94F508C11106C061E088E395
:100DA00090E00E94E80807C0C13029F461E088E3C0
:100DB00090E00E94DC08CF910895CF93C82F21E0E6
:100DC00043E067E370E088E390E00E94F508C1111A
:100DD00006C063E088E390E00E94E80807C0C130E5
:100DE00029F463E088E390E00E94DC08CF91089545
:100DF00081E00E94DD068AE18A95F1F700C080E07B
:100E00000E94DD068AE68A95F1F700C00895CF9327
:100E1000C82F8BB39CB38F7099272C2F207F822BE8
:100E20009CBB8BBB80E00E94C20680E00E94A706AC
:100E30000E94F80620E1C29FC00111249CBB8BBB1D
:100E40000E94F806CF910895CF93C82F8BB39CB31F
:100E50008F7099272C2F207F822B9CBB8BBB81E02E
:100E60000E94C20680E00E94A7060E94F80620E1C8
:100E7000C29FC00111249CBB8BBB0E94F806CF917E
:100E800008950F931F93CF93DF93662371F0EC01C6
:100E90006150062F10E00F5F1F4F080F191F899137
:100EA0000E942407C017D107D1F7DF91CF911F917E
:100EB0000F91089521E042E067E370E088E390E05D
:100EC0000E94F50821E041E067E370E088E390E0EC
:100ED0000E94F50821E043E067E370E088E390E0DA
:100EE0000E94F50821E044E06AE370E08BE390E0C3
:100EF0000E94F50821E045E06AE370E08BE390E0B2
:100F00000E94F50821E046E06AE370E08BE390E0A0
:100F10000E94F50821E047E06AE370E08BE390E08F
:100F20000E94F50880E00E94DD068FE39FE10197B3
:100F3000F1F700C0000083E30E9407078FE891E00B
:100F40000197F1F700C0000082E30E9407078FE8D5
:100F500091E00197F1F700C0000088E20E940707C6
:100F60008FE891E00197F1F700C000008FE00E9448
:100F700007078FE891E00197F1F700C0000081E0DA
:100F80000E9407078FE39FE10197F1F700C000007F
:100F900086E00E9407078FE891E00197F1F700C013
:100FA00000000895813031F465E082E390E00E9412
:100FB000DC080895823031F466E082E390E00E941C
:100FC000DC080895833029F467E082E390E00E9412
:100FD000DC080895813031F465E082E390E00E94FE
:100FE000E8080895823031F466E082E390E00E94E0
:100FF000E8080895833029F467E082E390E00E94D6
:10100000E8080895CF93C5E081E00E94D20782E00E
:101010000E94D20783E00E94D2072FEF89E698E171
:10102000215080409040E1F700C0000081E00E9424
:10103000EA0782E00E94EA0783E00E94EA072FEFB6
:1010400089E698E1215080409040E1F700C000001F
:10105000C150D1F6CF91089563E082E390E00E9401
:10106000DC08089563E082E390E00E94E8080895B8
:10107000CF93C5E00E942C082FEF89E698E121501C
:1010800080409040E1F700C000000E9432082FEF3E
:1010900089E698E1215080409040E1F700C00000CF
:1010A000C15041F7CF910895813031F464E085E378
:1010B00090E00E94E8080895823031F465E085E30D
:1010C00090E00E94E8080895833031F466E085E3FB
:1010D00090E00E94E8080895843029F467E085E3F1
:1010E00090E00E94E808089581E00E94540882E0A0
:1010F0000E94540883E00E94540884E00E9454082F
:10110000089521E045E061E370E082E390E00E9411
:10111000F50821E046E061E370E082E390E00E94A0
:10112000F50821E047E061E370E082E390E00E948F
:10113000F50821E044E061E370E082E390E00E9482
:10114000F50821E043E061E370E082E390E00E9473
:10115000F50820E040E061E370E082E390E00E9467
:10116000F50820E041E061E370E082E390E00E9456
:10117000F50820E042E061E370E082E390E00E9445
:10118000F50881E00E94EA0782E00E94EA0783E016
:101190000E94EA070E94DD030E9432080E94740840
:1011A0000E945A0780915001882319F00E942B0356
:1011B000F9CF0E94BD00F6CFFC01408121E030E074
:1011C00002C0220F331F6A95E2F7242B2083089573
:1011D000FC01908121E030E002C0220F331F6A95AC
:1011E000E2F72095292320830895211112C0FB01E5
:1011F000508121E030E002C0220F331F4A95E2F710
:10120000322F309535233083FC013081232B20830E
:101210000895213059F4FB01208181E090E002C063
:10122000880F991F4A95E2F7822B80830895FC016D
:10123000208181E090E002C0880F991F6A95E2F753
:101240008223FA01808308951F920F920FB60F92A6
:1012500011240F900FBE0F901F901895F894FFCF98
:10126000554E4C4F434B494E47202E2E2E2E2E2EA0
:10127000004F4B202E2E2121202020202020202016
:10128000200054525920414741494E202E2E2E2EE7
:101290002E2E0057524F4E472050415353574F5216
:1012A00044212100454E5445522050415353574F3D
:1012B0005244203A0054657374696E67202E2E2EB6
:1012C00020202020200032294E65787420202D2DEA
:1012D0003E202020202000302942555A5A455220D5
:1012E000202020202020200032294E6578742020E4
:1012F0002D2D3E20202020200030294C4544532015
:101300002020312952454C41590054657374206C9A
:10131000697374202D3E20283229002020414D4938
:10132000545F4C4541524E494E47200033353532CB
:1013300033394443424123393633303835322A3742
:02134000343146
:00000001FF
