:100000000C942A000C9434000C9434000C943400AA
:100010000C9434000C9434000C9434000C94340090
:100020000C9434000C9434000C9434000C94340080
:100030000C9434000C9434000C9434000C94340070
:100040000C9434000C9434000C9434000C94340060
:100050000C94340011241FBECFE5D8E0DEBFCDBF25
:100060000E94C8010C9445030C940000EF92FF928B
:100070000F931F93CF93DF931F92CDB7DEB77C0111
:100080001982AE014F5F5F4F60E080E390E00E9415
:10009000380389818823B9F016E900E0AE014F5F8B
:1000A0005F4F60E080E390E00E9438038981811116
:1000B0000F5F115099F7063919F4F701808305C0D5
:1000C000F701108202C0F70110820F90DF91CF91EB
:1000D0001F910F91FF90EF900895EF92FF920F9371
:1000E0001F93CF93DF931F92CDB7DEB77C011982A8
:1000F000AE014F5F5F4F61E080E390E00E94380304
:1001000089818823B9F016E900E0AE014F5F5F4FA7
:1001100061E080E390E00E943803898181110F5FE4
:10012000115099F7063919F4F701808305C0F701DA
:10013000108202C0F70110820F90DF91CF911F91C2
:100140000F91FF90EF900895EF92FF920F931F93FE
:10015000CF93DF931F92CDB7DEB77C011982AE013A
:100160004F5F5F4F62E080E390E00E943803898137
:100170008823B9F016E900E0AE014F5F5F4F62E0FF
:1001800080E390E00E943803898181110F5F115054
:1001900099F7063919F4F701808305C0F701108239
:1001A00002C0F70110820F90DF91CF911F910F9144
:1001B000FF90EF90089564E082E390E00E94FD02DA
:1001C000089564E082E390E00E940903089581307D
:1001D00031F465E082E390E00E94FD0208958230F0
:1001E00031F466E082E390E00E94FD0208958330DE
:1001F00029F467E082E390E00E94FD0208958130D7
:1002000031F465E082E390E00E94090308958230B2
:1002100031F466E082E390E00E94090308958330A0
:1002200029F467E082E390E00E940903089563E007
:1002300082E390E00E94FD02089563E082E390E093
:100240000E9409030895813031F462E085E390E073
:100250000E94FD020895823029F463E085E390E076
:100260000E94FD020895813031F462E085E390E060
:100270000E9409030895823029F463E085E390E049
:100280000E9409030895813031F464E085E390E031
:100290000E9409030895823031F465E085E390E01F
:1002A0000E9409030895833031F466E085E390E00D
:1002B0000E9409030895843029F467E085E390E003
:1002C0000E940903089581E00E94430182E00E9498
:1002D000430183E00E94430184E00E9443010895AA
:1002E000CF93C82F0E94630125B336B340E1C49F6A
:1002F000C0011124822B932B96BB85BB8FEF93EF0C
:1003000021E0815090402040E1F700C00000CF91F3
:100310000895CF93C3E081E00E94FF0082E00E9435
:10032000FF0083E00E94FF0081E00E94330182E031
:100330000E9433012FEF82E597E0215080409040EA
:10034000E1F700C0000081E00E94E70082E00E9427
:10035000E70083E00E94E70081E00E94230182E041
:100360000E9423012FEF82E597E0215080409040CA
:10037000E1F700C00000C15071F681E00E94FF006B
:1003800082E00E94FF0083E00E94FF00CF91089569
:10039000CF93DF931F92CDB7DEB7198221E045E0FE
:1003A00061E370E082E390E00E94160321E046E002
:1003B00061E370E082E390E00E94160321E047E0F1
:1003C00061E370E082E390E00E94160321E044E0E4
:1003D00061E370E082E390E00E94160321E043E0D5
:1003E00061E370E082E390E00E94160321E042E0C6
:1003F00064E370E085E390E00E94160321E043E0AF
:1004000064E370E085E390E00E94160321E044E09D
:1004100064E370E085E390E00E94160321E045E08C
:1004200064E370E085E390E00E94160321E046E07B
:1004300064E370E085E390E00E94160321E047E06A
:1004400064E370E085E390E00E94160320E040E062
:1004500061E370E082E390E00E94160320E041E057
:1004600061E370E082E390E00E94160320E042E046
:1004700061E370E082E390E00E94160381E00E9455
:10048000230182E00E94230181E00E94FF0082E0BC
:100490000E94FF0083E00E94FF000E94E1000E9492
:1004A0001D010E946301F12C00E010E0E12CCE015F
:1004B00001960E94360011112DC089818823E9F030
:1004C00081E00E94E70082E00E94E70083E00E9452
:1004D000E7000E94DB000E94170189E0E81207C0D4
:1004E00080E00E9470010E948901E12C04C0E39425
:1004F0008E2D0E94700111E00DC081E00E94FF006E
:1005000082E00E94FF0083E00E94FF000E94E10061
:100510000E941D01CE0101960E9436008981811141
:1005200001C010E0CE0101960E946D00011128C0AB
:1005300089818823C1F081E00E94E70082E00E9467
:10054000E70083E00E94E7000E94DB000E941701A1
:10055000E11003C00E94890104C0EA948E2D0E941C
:10056000700101E00DC081E00E94FF0082E00E9466
:10057000FF0083E00E94FF000E94E1000E941D0135
:10058000CE0101960E946D008981811101C000E0B9
:10059000CE0101960E94A400F11026C08981882313
:1005A000B1F081E00E94E70082E00E94E70083E072
:1005B0000E94E7000E94DB000E94170180E00E9479
:1005C00070010E948901FF24F394E12C0DC081E0A9
:1005D0000E94FF0082E00E94FF0083E00E94FF0073
:1005E0000E94E1000E941D01CE0101960E94A4001C
:1005F000898181115CCFF12C5ACFFC01408121E02F
:1006000030E002C0220F331F6A95E2F7242B2083CB
:100610000895FC01908121E030E002C0220F331FD9
:100620006A95E2F72095292320830895211112C0AD
:10063000FB01508121E030E002C0220F331F4A95B8
:10064000E2F7322F309535233083FC013081232BA4
:1006500020830895213059F4FB01208181E090E04E
:1006600002C0880F991F4A95E2F7822B8083089574
:10067000FC01208181E090E002C0880F991F6A95FB
:0E068000E2F78223FA0180830895F894FFCFF9
:00000001FF
