S0150000414D49545F4C4541524E494E472E7372656335
S11300000C942A000C9447000C9447000C9447006D
S11300100C9447000C9447000C9447000C94470040
S11300200C9447000C9447000C9447000C94C90AA4
S11300300C9447000C9447000C9447000C94470020
S11300400C9447000C9447000C9447000C94470010
S11300500C94470011241FBECFE5D8E0DEBFCDBF0E
S113006011E0A0E6B0E0E8EBF5E102C005900D92E6
S1130070AE33B107D9F721E0AEE3B1E001C01D9280
S1130080A035B207E1F70E94240A0C94DA0A0C9412
S11300900000CF93DF93EC010E94E3060E94E90580
S11300A00E9458080E94460783E491E00E940706D4
S11300B080914301811102C0188220C082E491E042
S11300C00E943E0680914201811103C081E0888331
S11300D015C081E491E00E9475068091410181116F
S11300E003C082E088830AC080E491E00E94AC06E9
S11300F0809140018111D8CF83E088830E94460714
S1130100DF91CF910895CF93DF93EC010E943708DC
S11301100E943D070E9404070E94F20587E491E0D3
S11301200E945B0780914701811102C0188220C0A0
S113013086E491E00E94920780914601811103C0F8
S113014081E0888315C085E491E00E94C90780910D
S11301504501811103C082E088830AC084E491E0F0
S11301600E940008809144018111D8CF83E08883E4
S11301700E94F205DF91CF9108958233F1F49091BA
S11301804801911107C091E49093490191E0909343
S1130190480153C0913039F492E49093490192E0BC
S11301A0909348014AC0923009F047C093E4909379
S11301B0490195E39093480140C08333F1F4909151
S11301C04801911107C094E49093490191E0909300
S11301D0480153C0913039F495E49093490192E079
S11301E0909348014AC0923009F047C096E4909336
S11301F0490195E39093480140C08433F1F4909110
S11302004801911107C097E49093490191E09093BC
S1130210480153C0913039F498E49093490192E035
S1130220909348014AC0923009F047C099E49093F2
S1130230490195E39093480140C08533F1F49091CE
S11302404801911107C09AE49093490191E0909379
S113025048015CC0913039F49BE49093490192E0E9
S11302609093480153C0923009F050C09CE490939D
S1130270490195E39093480149C08633F1F4909184
S11302804801911107C09DE49093490191E0909336
S113029048015BC0913039F49EE49093490192E0A7
S11302A09093480152C0923009F04FC09FE490935C
S11302B0490195E39093480148C0873339F580910B
S11302C04801811107C080E58093490181E0809352
S11302D048010895813039F481E58093490182E031
S11302E0809348010895823039F482E5809349016E
S11302F083E0809348010895833009F04DC083E57D
S11303008093490185E38093480108958833E9F493
S113031080914801811107C084E58093490181E0FF
S1130320809348010895813039F485E5809349012B
S113033082E0809348010895823071F586E58093C8
S1130340490185E3809348010895893329F5809113
S11303504801811107C087E58093490181E08093BA
S113036048010895813039F488E58093490182E099
S1130370809348010895823039F489E580934901D6
S113038083E0809348010895833031F48AE58093B3
S1130390490185E38093480108958F929F92BF920B
S11303A0CF92DF92EF92FF920F931F93CF93DF933D
S11303B0CDB7DEB76C970FB6F894DEBF0FBECDBFD6
S11303C010924D0187E0FE013196DF01282F1D9226
S11303D02A95E9F73796DF01282F1D922A95E9F728
S11303E097E0E7E2F1E0DE011F9601900D929A9505
S11303F0E1F7FE017696DF011D928A95E9F783E322
S11304008E8B95E39F8B988F92E3998F8A8F89E3E4
S11304108B8F81E00E94D708EFE6F7E13197F1F77F
S113042000C0000086E00E94D7088BE291E00197AB
S1130430F1F700C0000080E80E94D70865E08BEA6D
S113044090E00E94110910E00E9437080E943D07C5
S11304500E9404070E94F20587E491E00E945B0772
S113046086E491E00E94920785E491E00E94C90726
S113047084E491E00E94000880914701882361F39D
S113048080914601882341F380914501882321F31B
S113049080914401882301F387E491E00E945B0783
S11304A086E491E00E94920785E491E00E94C907E6
S11304B084E491E00E94000880914701882361F060
S11304C080914601882341F080914501882321F0E1
S11304D0809144018111E0CF0E94A9058FE391E04E
S11304E00E9449008EE391E00E9483009FEBA4EDFB
S11304F0B1E09150A040B040E1F700C000000E947C
S1130500AF05E0913F01F0E080913E01EE0FFF1F47
S1130510EE0FFF1FE25DFE4FE80FF11D80818D326B
S113052069F00E94BD00809149010E94F40884E0B2
S11305300E94D7081F5F173009F086CF80914801C9
S1130540853009F080CF1092480186E00E94D708D8
S1130550E8E0F0E0EC0FFD1FE10FF11D809149018F
S11305608083FE013896DE011F96CD01B12C3191B6
S11305702D91321301C0B394E817F907C1F780EC49
S11305800E94D70867E084EA90E00E9411097E0186
S1130590E8E0EE0EF11CCE0101966C0147018C01DE
S11305A00E9437080E943D070E9404070E94F2053A
S11305B087E491E00E945B0786E491E00E94920741
S11305C085E491E00E94C90784E491E00E94000858
S11305D080914701882361F380914601882341F388
S11305E080914501882321F380914401882301F3FC
S11305F087E491E00E945B0786E491E00E94920701
S113060085E491E00E94C90784E491E00E94000817
S113061080914701882361F080914601882341F04D
S113062080914501882321F0809144018111E0CF1C
S11306300E94A9058FE391E00E9449008EE391E0B6
S11306400E9483009FEBA4EDB1E09150A040B04024
S1130650E1F700C000000E94AF05E0913F01F0E027
S113066080913E01EE0FFF1FEE0FFF1FE25DFE4F74
S1130670E80FF11D8081809349018D3279F08AE27F
S11306800E94F40880914901F80181938F01EE16CC
S1130690FF0609F085CF8D3209F07DCFFE017696F5
S11306A080E0D6012D916D019191291301C08F5FD6
S11306B0C814D904B1F7B7E0BB1248C0873009F0B9
S11306C045C080914E018F5F80934E0180914D0112
S11306D08F5F80934D0181E00E94D708EFE6F7E138
S11306E03197F1F700C0000086E00E94D7088BE242
S11306F091E00197F1F700C0000080E80E94D7085C
S113070061E181E790E00E94110980EC0E94D70822
S113071061E180E690E00E9411090E94A9059FE72B
S1130720ACEFBAE09150A040B040E1F700C0000047
S11307300E94AF05EFE7FFE422E1E150F0402040E2
S1130740E1F700C000000E94FC0924C081E00E947F
S1130750D7088FE697E10197F1F700C0000086E023
S11307600E94D708ABE2B1E01197F1F700C0000096
S113077080E80E94D70861E183E990E00E941109B2
S113078080EC0E94D70861E182E890E00E941109A0
S11307900E94B5056C960FB6F894DEBF0FBECDBFB0
S11307A0DF91CF911F910F91FF90EF90DF90CF9049
S11307B0BF909F908F90089581E00E94D7088FE6A4
S11307C097E10197F1F700C0000086E00E94D70886
S11307D08BE291E00197F1F700C0000080E80E94ED
S11307E0D70861E186E191E00E94110980EC0E9442
S11307F0D70861E185E091E00E9411098AE491E063
S11308000E94720580914A018823C1F39FE72CEF6F
S11308108AE0915020408040E1F700C00000089534
S113082081E00E94D7088FE697E10197F1F700C0B5
S1130830000086E00E94D7088BE291E00197F1F76F
S113084000C0000080E80E94D70861E184EF90E0D6
S11308500E94110980EC0E94D70861E183EE90E0C8
S11308600E9411098CE491E00E9404058BE491E05C
S11308700E943B058AE491E00E94720580914C013C
S1130880811108C080914B01811104C080914A01FB
S1130890882341F39FE72CEF8AE091502040804069
S11308A0E1F700C0000080914C018823E9F081E069
S11308B00E94D7088FE697E10197F1F700C0000086
S11308C086E00E94D7088BE291E00197F1F700C01F
S11308D0000080E80E94D70861E180EB90E00E946C
S11308E011090E94D2099CCF80914B018823E9F021
S11308F081E00E94D7088FE697E10197F1F700C0E5
S1130900000086E00E94D7088BE291E00197F1F79E
S113091000C0000080E80E94D70861E180EB90E00D
S11309200E9411090E94080A7BCF80914A01882302
S113093009F476CF089581E00E94D7088FE697E105
S11309400197F1F700C0000086E00E94D7088BE20F
S113095091E00197F1F700C0000080E80E94D708F9
S113096061E182ED90E00E94110980EC0E94D708B9
S113097061E181EC90E00E9411098CE491E00E9415
S113098004058AE491E00E94720580914C01811172
S113099004C080914A01882381F39FE72CEF8AE009
S11309A0915020408040E1F700C0000080914C014C
S11309B08823E9F081E00E94D7088FE697E1019748
S11309C0F1F700C0000086E00E94D7088BE291E0B6
S11309D00197F1F700C0000080E80E94D70861E1A8
S11309E080EB90E00E9411090E94B505A4CF80918C
S11309F04A01882309F49FCF08950E94DC030E94D2
S1130A0010040E949B040895EF92FF920F931F938A
S1130A10CF93DF931F92CDB7DEB77C011982AE016D
S1130A204F5F5F4F60E080E390E00E94BC0A8981E1
S1130A308823B9F016E900E0AE014F5F5F4F60E034
S1130A4080E390E00E94BC0A898181110F5F1150FC
S1130A5099F7063919F4F701808305C0F70110826C
S1130A6002C0F70110820F90DF91CF911F910F9177
S1130A70FF90EF900895EF92FF920F931F93CF93FF
S1130A80DF931F92CDB7DEB77C011982AE014F5FB1
S1130A905F4F61E080E390E00E94BC0A8981882373
S1130AA0B9F016E900E0AE014F5F5F4F61E080E30B
S1130AB090E00E94BC0A898181110F5F115099F75F
S1130AC0063919F4F701808305C0F701108202C0CA
S1130AD0F70110820F90DF91CF911F910F91FF903A
S1130AE0EF900895EF92FF920F931F93CF93DF93AC
S1130AF01F92CDB7DEB77C011982AE014F5F5F4F05
S1130B0062E080E390E00E94BC0A89818823B9F006
S1130B1016E900E0AE014F5F5F4F62E080E390E0D2
S1130B200E94BC0A898181110F5F115099F706391F
S1130B3019F4F701808305C0F701108202C0F701A0
S1130B4010820F90DF91CF911F910F91FF90EF9042
S1130B50089564E082E390E00E94810A089564E0CD
S1130B6082E390E00E948D0A0895CF93C3E00E942F
S1130B70A9052FE78CEF9AE0215080409040E1F7DF
S1130B8000C000000E94AF052FE78CEF9AE02150CF
S1130B9080409040E1F700C00000C15041F7CF9180
S1130BA0089564E085E390E00E94810A089565E079
S1130BB085E390E00E94810A089566E085E390E071
S1130BC00E94810A089567E085E390E00E94810A0B
S1130BD008950E94D1050E94D7050E94DD050E9458
S1130BE0E305089564E085E390E00E948D0A65E0E2
S1130BF085E390E00E948D0A66E085E390E00E9420
S1130C008D0A67E085E390E00E948D0A0895EF92D3
S1130C10FF920F931F93CF93DF931F92CDB7DEB74D
S1130C207C011982AE014F5F5F4F64E083E390E083
S1130C300E94BC0A89818823B9F016E900E0AE015C
S1130C404F5F5F4F64E083E390E00E94BC0A8981B8
S1130C5081110F5F115099F7063919F4F701808358
S1130C6005C0F701108202C0F70110820F90DF91D6
S1130C70CF911F910F91FF90EF900895EF92FF9203
S1130C800F931F93CF93DF931F92CDB7DEB77C01F1
S1130C901982AE014F5F5F4F65E083E390E00E94ED
S1130CA0BC0A89818823B9F016E900E0AE014F5FE0
S1130CB05F4F65E083E390E00E94BC0A8981811163
S1130CC00F5F115099F7063919F4F701808305C0B5
S1130CD0F701108202C0F70110820F90DF91CF91CB
S1130CE01F910F91FF90EF900895EF92FF920F9351
S1130CF01F93CF93DF931F92CDB7DEB77C01198288
S1130D00AE014F5F5F4F66E083E390E00E94BC0A50
S1130D1089818823B9F016E900E0AE014F5F5F4F87
S1130D2066E083E390E00E94BC0A898181110F5F31
S1130D30115099F7063919F4F701808305C0F701BA
S1130D40108202C0F70110820F90DF91CF911F91A2
S1130D500F91FF90EF900895EF92FF920F931F93DE
S1130D60CF93DF931F92CDB7DEB77C011982AE011A
S1130D704F5F5F4F67E083E390E00E94BC0A898184
S1130D808823B9F016E900E0AE014F5F5F4F67E0DA
S1130D9083E390E00E94BC0A898181110F5F1150A6
S1130DA099F7063919F4F701808305C0F701108219
S1130DB002C0F70110820F90DF91CF911F910F9124
S1130DC0FF90EF90089520E044E064E370E085E351
S1130DD090E00E949A0A20E045E064E370E085E335
S1130DE090E00E949A0A20E046E064E370E085E324
S1130DF090E00E949A0A20E047E064E370E085E313
S1130E0090E00E949A0A089521E044E064E370E0CF
S1130E1085E390E00E949A0A21E045E064E370E0F3
S1130E2085E390E00E949A0A21E046E064E370E0E2
S1130E3085E390E00E949A0A21E047E064E370E0D1
S1130E4085E390E00E949A0A089560E085E390E0CB
S1130E500E94810A089561E085E390E00E94810A7E
S1130E60089562E085E390E00E94810A089563E0BA
S1130E7085E390E00E94810A08950E9425070E945C
S1130E802B070E9431070E943707089560E085E32D
S1130E9090E00E948D0A61E085E390E00E948D0A53
S1130EA062E085E390E00E948D0A63E085E390E0D0
S1130EB00E948D0A0895EF92FF920F931F93CF9390
S1130EC0DF931F92CDB7DEB77C011982AE014F5F6D
S1130ED05F4F60E083E390E00E94BC0A898188232D
S1130EE0B9F016E900E0AE014F5F5F4F60E083E3C5
S1130EF090E00E94BC0A898181110F5F115099F71B
S1130F00063919F4F701808305C0F701108202C085
S1130F10F70110820F90DF91CF911F910F91FF90F5
S1130F20EF900895EF92FF920F931F93CF93DF9367
S1130F301F92CDB7DEB77C011982AE014F5F5F4FC0
S1130F4061E083E390E00E94BC0A89818823B9F0C0
S1130F5016E900E0AE014F5F5F4F61E083E390E08C
S1130F600E94BC0A898181110F5F115099F70639DB
S1130F7019F4F701808305C0F701108202C0F7015C
S1130F8010820F90DF91CF911F910F91FF90EF90FE
S1130F900895EF92FF920F931F93CF93DF931F92C5
S1130FA0CDB7DEB77C011982AE014F5F5F4F62E0BF
S1130FB083E390E00E94BC0A89818823B9F016E992
S1130FC000E0AE014F5F5F4F62E083E390E00E9478
S1130FD0BC0A898181110F5F115099F7063919F400
S1130FE0F701808305C0F701108202C0F701108267
S1130FF00F90DF91CF911F910F91FF90EF90089583
S1131000EF92FF920F931F93CF93DF931F92CDB76D
S1131010DEB77C011982AE014F5F5F4F63E083E36B
S113102090E00E94BC0A89818823B9F016E900E0A7
S1131030AE014F5F5F4F63E083E390E00E94BC0A20
S1131040898181110F5F115099F7063919F4F7015D
S1131050808305C0F701108202C0F70110820F904F
S1131060DF91CF911F910F91FF90EF90089520E0B1
S113107040E064E370E085E390E00E949A0A20E097
S113108041E064E370E085E390E00E949A0A20E086
S113109042E064E370E085E390E00E949A0A20E075
S11310A043E064E370E085E390E00E949A0A0895C7
S11310B021E040E064E370E085E390E00E949A0A56
S11310C021E041E064E370E085E390E00E949A0A45
S11310D021E042E064E370E085E390E00E949A0A34
S11310E021E043E064E370E085E390E00E949A0A23
S11310F00895CF93C82F21E042E067E370E088E3CE
S113110090E00E949A0AC11106C062E088E390E070
S11311100E948D0A07C0C13029F462E088E390E0A0
S11311200E94810ACF910895CF93C82F21E041E016
S113113067E370E088E390E00E949A0AC11106C058
S113114061E088E390E00E948D0A07C0C13029F471
S113115061E088E390E00E94810ACF910895CF93E3
S1131160C82F21E043E067E370E088E390E00E9449
S11311709A0AC11106C063E088E390E00E948D0AD8
S113118007C0C13029F463E088E390E00E94810A3B
S1131190CF91089581E00E94AF0884E18A95F1F728
S11311A080E00E94AF0880E58A95F1F70895CF9317
S11311B0C82F8BB39CB38F7099272C2F207F822B41
S11311C09CBB8BBB80E00E94940880E00E9479085D
S11311D00E94CA0820E1C29FC00111249CBB8BBBA2
S11311E00E94CA08CF910895CF93C82F8BB39CB3A4
S11311F08F7099272C2F207F822B9CBB8BBB81E087
S11312000E94940880E00E9479080E94CA0820E1A4
S1131210C29FC00111249CBB8BBB0E94CA08CF9102
S113122008950F931F93CF93DF93662371F0EC011E
S11312306150062F10E00F5F1F4F080F191F89918F
S11312400E94F408C017D107D1F7DF91CF911F9105
S11312500F91089521E042E067E370E088E390E0B5
S11312600E949A0A21E041E067E370E088E390E09D
S11312700E949A0A21E043E067E370E088E390E08B
S11312800E949A0A21E044E06AE370E08BE390E074
S11312900E949A0A21E045E06AE370E08BE390E063
S11312A00E949A0A21E046E06AE370E08BE390E052
S11312B00E949A0A21E047E06AE370E08BE390E041
S11312C00E949A0A80E00E94AF088FE697E1019796
S11312D0F1F700C0000083E30E94D7088BE291E09D
S11312E00197F1F700C0000082E30E94D7088BE267
S11312F091E00197F1F700C0000088E20E94D7084E
S11313008BE291E00197F1F700C000008FE00E94AA
S1131310D7088BE291E00197F1F700C0000081E06B
S11313200E94D7088FE697E10197F1F700C000000B
S113133086E00E94D7088BE291E00197F1F700C0A4
S113134000000895813031F465E082E390E00E946A
S1131350810A0895823031F466E082E390E00E94CD
S1131360810A0895833029F467E082E390E00E94C3
S1131370810A0895813031F465E082E390E00E94AF
S11313808D0A0895823031F466E082E390E00E9491
S11313908D0A0895833029F467E082E390E00E9487
S11313A08D0A0895CF93C5E081E00E94A20982E0EE
S11313B00E94A20983E00E94A2092FE78FE492E130
S11313C0215080409040E1F700C0000081E00E947D
S11313D0BA0982E00E94BA0983E00E94BA092FE7A1
S11313E08FE492E1215080409040E1F700C000007A
S11313F0C150D1F6CF91089563E082E390E00E945A
S1131400810A089563E082E390E00E948D0A0895C2
S1131410CF93C5E00E94FC092FE78FE492E12150AD
S113142080409040E1F700C000000E94020A2FE7CC
S11314308FE492E1215080409040E1F700C0000029
S1131440C15041F7CF91089521E045E061E370E098
S113145082E390E00E949A0A21E046E061E370E0B2
S113146082E390E00E949A0A21E047E061E370E0A1
S113147082E390E00E949A0A21E044E061E370E094
S113148082E390E00E949A0A21E043E061E370E085
S113149082E390E00E949A0A20E040E061E370E079
S11314A082E390E00E949A0A20E041E061E370E068
S11314B082E390E00E949A0A20E042E061E370E057
S11314C082E390E00E949A0A81E00E94BA0982E0D5
S11314D00E94BA0983E00E94BA090E94AF050E94E3
S11314E0020A0E942A0980914E01882339F08091D2
S11314F04D01882319F00E94FD04F5CF0E94CD010F
S1131500F2CFFC01408121E030E002C0220F331F02
S11315106A95E2F7242B20830895FC01908121E051
S113152030E002C0220F331F6A95E2F72095292389
S113153020830895211112C0FB01508121E030E085
S113154002C0220F331F4A95E2F7322F309535231C
S11315503083FC013081232B20830895213059F4FA
S1131560FB01208181E090E002C0880F991F4A9519
S1131570E2F7822B80830895FC01208181E090E0D2
S113158002C0880F991F6A95E2F78223FA018083CB
S113159008951F920F920FB60F9211248F9380918A
S11315A04F018F5F80934F018F910F900FBE0F906B
S10B15B01F901895F894FFCF79
S11315B8554E4C4F434B494E47202E2E2E2E2E2E41
S11315C8004F4B202E2E21212020202020202020B7
S11315D8200054525920414741494E202E2E2E2E88
S11315E82E2E0057524F4E472049442F50415353F3
S11315F82E21210050415353203A004944203A00F7
S113160854657374696E67202E2E2E2020202020A6
S11316180032294E65787420202D2D3E202020206C
S11316282000302942555A5A455220202020202093
S113163820200032294E65787420202D2D3E20204C
S11316482020200030294C454453202020312952A1
S1131658454C41590054657374206C697374202D8A
S11316683E20283229002020414D49545F4C4541F1
S1131678524E494E47200041454C4B4144592D4355
S1111688424123393633303835322A37343173
S9030000FC
