:100000000C942A000C9434000C9434000C943400AA
:100010000C9434000C9434000C9434000C94340090
:100020000C9434000C9434000C9434000C94340080
:100030000C9434000C9434000C9434000C94340070
:100040000C9434000C9434000C9434000C94340060
:100050000C94340011241FBECFE5D8E0DEBFCDBF25
:100060000E9454000C9463000C94000011B887E4C3
:1000700080B984E086BF089584EA86BF06B607FE8D
:10008000FDCF089583B984E886BF06B607FEFDCF8D
:10009000089526B781E090E002C0880F991F2A9545
:1000A000E2F7846186BF08950E9436000E943C00FA
:1000B00080ED90E00E94420080EF90E00E944200BC
:0A00C0000E944900FFCFF894FFCF23
:00000001FF
