S01900004D6963726F636F6E74726F6C6C657273312E7372656329
S11300000C942A000C9434000C9434000C943400A6
S11300100C9434000C9434000C9434000C9434008C
S11300200C9434000C9434000C9434000C9434007C
S11300300C9434000C9434000C9434000C9434006C
S11300400C9434000C9434000C9434000C9434005C
S11300500C94340011241FBECFE5D8E0DEBFCDBF21
S11300600E9439000C94A3000C9400000895089594
S1130070089581B341E065E00E94380081B341E016
S113008066E00E94380081B341E067E00E943800D6
S113009082B365E00E94370082B366E00E943700B5
S11300A082B367E00E94370082B365E00E943600A5
S11300B02FEF83EC99E0215080409040E1F700C09D
S11300C0000082B365E00E9437002FEF83EC99E0D3
S11300D0215080409040E1F700C0000082B366E008
S11300E00E9436002FEF83EC99E02150804090402D
S11300F0E1F700C0000082B366E00E9437002FEFF2
S113010083EC99E0215080409040E1F700C000006A
S113011082B367E00E9436002FEF83EC99E0215010
S113012080409040E1F700C0000082B367E00E9485
S113013037002FEF83EC99E0215080409040E1F7A5
S10D014000C00000B1CFF894FFCF17
S9030000FC
