:100000000C942A000C943C000C943C000C943C0092
:100010000C943C000C943C000C943C000C943C0070
:100020000C943C000C943C000C943C000C94080193
:100030000C943C000C943C000C943C000C943C0050
:100040000C943C000C943C000C943C000C943C0040
:100050000C943C0011241FBECFE5D8E0DEBFCDBF1D
:1000600020E0A0E6B0E001C01D92A136B207E1F7A2
:100070000E94A6000C941F010C9400008130910591
:1000800099F018F00297F9F0089565E070E081E3C7
:1000900090E00E94B70041E050E065E070E082E34C
:1000A00090E00E94C600089566E070E081E390E071
:1000B0000E94B70041E050E066E070E082E390E02B
:1000C0000E94C600089565E070E081E390E00E9420
:1000D000B70041E050E066E070E082E390E00E940B
:1000E000C60008958130910599F018F00297F9F053
:1000F000089565E070E081E390E00E94B70040E081
:1001000050E065E070E082E390E00E94C600089550
:1001100066E070E081E390E00E94B70040E050E0CC
:1001200066E070E082E390E00E94C600089565E01A
:1001300070E081E390E00E94B70040E050E066E0AC
:1001400070E082E390E00E94C600089580E090E0B5
:100150000E943E0084EF91E00E94E80080E090E081
:100160000E94720084EF91E00E94E800EFCFFC0152
:100170004081518121E030E002C0220F331F6A9597
:10018000E2F7242B352B318320830895452B89F406
:10019000FC014081518121E030E002C0220F331F79
:1001A0006A95E2F720953095242335233183208307
:1001B0000895FC014081518121E030E002C0220F0E
:1001C000331F6A95E2F7242B352B31832083089562
:1001D0009C011092600083E090E094BF83BF86E0B2
:1001E00090E093BF82BF89B79AB781609ABF89BFF9
:1001F00078942115310559F0909160009923E1F32D
:10020000215031091092600021153105A9F7089598
:100210001F920F920FB60F9211248F939F9380918C
:1002200060008F5F8093600086E090E093BF82BFA4
:100230009F918F910F900FBE0F901F901895F8947B
:02024000FFCFEE
:00000001FF
