:100000000C942A000C9434000C9434000C943400AA
:100010000C9434000C9434000C9434000C94340090
:100020000C9434000C9434000C9434000C94340080
:100030000C9434000C9434000C9434000C94340070
:100040000C9434000C9434000C9434000C94340060
:100050000C94340011241FBECFE5D8E0DEBFCDBF25
:100060000E9436000C94C2000C940000CF93DF93E2
:1000700000D0CDB7DEB71A82198260E070E081E36C
:1000800090E00E948B0065E070E081E390E00E94C8
:100090007C00AE014F5F5F4F60E070E080E390E076
:1000A0000E94A30089819A81892B99F32FEF89EF10
:1000B00090E0215080409040E1F700C00000AE0188
:1000C0004F5F5F4F60E070E080E390E00E94A3002C
:1000D00089819A81892BE9F265E070E082E390E002
:1000E0000E94B3002FEF81EE94E0215080409040B9
:1000F000E1F700C00000CDCFFC014081518121E03B
:1001000030E002C0220F331F6A95E2F7242B352B13
:10011000318320830895FC012081318181E090E0CA
:1001200002C0880F991F6A95E2F7AC01409550957F
:10013000242335233183208321813281822B932B09
:10014000928381830895FC012081318181E090E0D8
:1001500002C0880F991F6A95E2F782239323FA0160
:10016000918380830895FC014081518121E030E03A
:1001700002C0220F331F6A95E2F724273527318307
:0801800020830895F894FFCFDD
:00000001FF
