S0120000696E74657272757074322E73726563F3
S11300000C942A000C944B000C943C000C943C007F
S11300100C943C000C943C000C943C000C943C006C
S11300200C943C000C943C000C943C000C943C005C
S11300300C943C000C943C000C943C000C943C004C
S11300400C943C000C943C000C943C000C943C003C
S11300500C943C0011241FBECFE5D8E0DEBFCDBF19
S113006020E0A0E6B0E001C01D92A236B207E1F79D
S11300700E943E000C9473000C94000080E48BBF3B
S113008083E085BF81B3806E81BB8A9882B3806C24
S113009082BB7894FFCF1F920F920FB60F92112458
S11300A08F939F938091600090916100009751F429
S11300B096989798959A81E090E090936100809348
S11300C060000AC0019741F482B3806C82BB9598AA
S11300D010926100109260009F918F910F900FBE5B
S10D00E00F901F901895F894FFCFBD
S9030000FC
