:100000000C942A000C9447000C9447000C94470071
:100010000C9447000C9447000C9447000C94470044
:100020000C9447000C9447000C9447000C94470034
:100030000C9447000C9447000C9447000C94470024
:100040000C9447000C9447000C9447000C94470014
:100050000C94470011241FBECFE5D8E0DEBFCDBF12
:1000600010E0A0E6B0E0E0EDFBE002C005900D92EC
:10007000A037B107D9F720E0A0E7B0E001C01D929A
:10008000AD37B207E1F70E9422050C94E6050C9407
:10009000000064E082E390E00E948905089564E036
:1000A00082E390E00E949505089564E085E390E086
:1000B0000E948905089565E085E390E00E94890526
:1000C000089566E085E390E00E948905089567E061
:1000D00085E390E00E94890508950E9455000E94E2
:1000E0005B000E9461000E946700089564E085E360
:1000F00090E00E94950565E085E390E00E949505FB
:1001000066E085E390E00E94950567E085E390E076
:100110000E9495050895EF92FF920F931F93CF933E
:10012000DF931F92CDB7DEB77C011982AE014F5F1E
:100130005F4F64E083E390E00E94C40589818823D7
:10014000B9F016E900E0AE014F5F5F4F64E083E372
:1001500090E00E94C405898181110F5F115099F7C9
:10016000063919F4F701808305C0F701108202C037
:10017000F70110820F90DF91CF911F910F91FF90A7
:10018000EF900895EF92FF920F931F93CF93DF9319
:100190001F92CDB7DEB77C011982AE014F5F5F4F72
:1001A00065E083E390E00E94C40589818823B9F06B
:1001B00016E900E0AE014F5F5F4F65E083E390E03A
:1001C0000E94C405898181110F5F115099F706398A
:1001D00019F4F701808305C0F701108202C0F7010E
:1001E00010820F90DF91CF911F910F91FF90EF90B0
:1001F0000895EF92FF920F931F93CF93DF931F9277
:10020000CDB7DEB77C011982AE014F5F5F4F66E06C
:1002100083E390E00E94C40589818823B9F016E940
:1002200000E0AE014F5F5F4F66E083E390E00E9425
:10023000C405898181110F5F115099F7063919F4AE
:10024000F701808305C0F701108202C0F701108218
:100250000F90DF91CF911F910F91FF90EF90089534
:10026000EF92FF920F931F93CF93DF931F92CDB71F
:10027000DEB77C011982AE014F5F5F4F67E083E319
:1002800090E00E94C40589818823B9F016E900E056
:10029000AE014F5F5F4F67E083E390E00E94C405CB
:1002A000898181110F5F115099F7063919F4F7010F
:1002B000808305C0F701108202C0F70110820F9001
:1002C000DF91CF911F910F91FF90EF90089520E063
:1002D00044E064E370E085E390E00E94A20520E042
:1002E00045E064E370E085E390E00E94A20520E031
:1002F00046E064E370E085E390E00E94A20520E020
:1003000047E064E370E085E390E00E94A205089571
:1003100021E044E064E370E085E390E00E94A20500
:1003200021E045E064E370E085E390E00E94A205EF
:1003300021E046E064E370E085E390E00E94A205DE
:1003400021E047E064E370E085E390E00E94A205CD
:10035000089560E085E390E00E948905089561E0DA
:1003600085E390E00E948905089562E085E390E0CE
:100370000E948905089563E085E390E00E94890565
:1003800008950E94A9010E94AF010E94B5010E9438
:10039000BB01089560E085E390E00E94950561E06F
:1003A00085E390E00E94950562E085E390E00E947D
:1003B000950563E085E390E00E9495050895EF922E
:1003C000FF920F931F93CF93DF931F92CDB7DEB7AA
:1003D0007C011982AE014F5F5F4F60E083E390E0E4
:1003E0000E94C40589818823B9F016E900E0AE01B6
:1003F0004F5F5F4F60E083E390E00E94C405898116
:1004000081110F5F115099F7063919F4F7018083B4
:1004100005C0F701108202C0F70110820F90DF9132
:10042000CF911F910F91FF90EF900895EF92FF925F
:100430000F931F93CF93DF931F92CDB7DEB77C014D
:100440001982AE014F5F5F4F61E083E390E00E944D
:10045000C40589818823B9F016E900E0AE014F5F39
:100460005F4F61E083E390E00E94C40589818111C0
:100470000F5F115099F7063919F4F701808305C011
:10048000F701108202C0F70110820F90DF91CF9127
:100490001F910F91FF90EF900895EF92FF920F93AD
:1004A0001F93CF93DF931F92CDB7DEB77C011982E4
:1004B000AE014F5F5F4F62E083E390E00E94C405AE
:1004C00089818823B9F016E900E0AE014F5F5F4FE4
:1004D00062E083E390E00E94C405898181110F5F8F
:1004E000115099F7063919F4F701808305C0F70117
:1004F000108202C0F70110820F90DF91CF911F91FF
:100500000F91FF90EF900895EF92FF920F931F933A
:10051000CF93DF931F92CDB7DEB77C011982AE0176
:100520004F5F5F4F63E083E390E00E94C4058981E1
:100530008823B9F016E900E0AE014F5F5F4F63E03A
:1005400083E390E00E94C405898181110F5F1150FF
:1005500099F7063919F4F701808305C0F701108275
:1005600002C0F70110820F90DF91CF911F910F9180
:10057000FF90EF90089520E040E064E370E085E3B1
:1005800090E00E94A20520E041E064E370E085E392
:1005900090E00E94A20520E042E064E370E085E381
:1005A00090E00E94A20520E043E064E370E085E370
:1005B00090E00E94A205089521E040E064E370E02D
:1005C00085E390E00E94A20521E041E064E370E051
:1005D00085E390E00E94A20521E042E064E370E040
:1005E00085E390E00E94A20521E043E064E370E02F
:1005F00085E390E00E94A2050895CF93DF93EC017C
:100600000E9467010E946D000E94DC020E94CA01E4
:1006100085E790E00E948B0080917500811102C0F7
:10062000188220C084E790E00E94C200809174008C
:10063000811103C081E0888315C083E790E00E94A8
:10064000F90080917300811103C082E088830AC0A1
:1006500082E790E00E943001809172008111D8CF32
:1006600083E088830E94CA01DF91CF910895CF93E0
:10067000DF93EC010E94BB020E94C1010E9488012D
:100680000E94760089E790E00E94DF018091790066
:10069000811102C0188220C088E790E00E941602F3
:1006A00080917800811103C081E0888315C087E7BD
:1006B00090E00E944D0280917700811103C082E09A
:1006C00088830AC086E790E00E94840280917600C9
:1006D0008111D8CF83E088830E947600DF91CF918B
:1006E0000895CF93DF93EC012FEF8BE792E9215030
:1006F00080409040E1F700C000000E940F0580E8B4
:100700000E945D0481E30E947A040E94BB020E9461
:10071000C1010E9488010E94760081E30E947A0450
:1007200089E790E00E94DF0188E790E00E941602CE
:1007300087E790E00E944D0286E790E00E948402E5
:1007400080917900882361F380917800882341F3B8
:1007500080917700882321F380917600882301F32C
:1007600082E30E947A0482E30E947A0489E790E09F
:100770000E94DF0188E790E00E94160287E790E080
:100780000E944D0286E790E00E94840280917900E9
:10079000882361F080917800882341F08091770070
:1007A000882321F0809176008111E0CF0E944900DA
:1007B00081E790E00E94FD0280E790E00E9437030D
:1007C0002FEF80E792E0215080409040E1F700C099
:1007D00000000E944F00E0917100F0E080917000F5
:1007E000EE0FFF1FEE0FFF1FE05AFF4FE80FF11D46
:1007F00080818883DF91CF910895CF93C82F21E026
:1008000042E067E370E088E390E00E94A205C11136
:1008100006C062E088E390E00E94950507C0C13001
:1008200029F462E088E390E00E948905CF91089561
:10083000CF93C82F21E041E067E370E088E390E0C8
:100840000E94A205C11106C061E088E390E00E9409
:10085000950507C0C13029F461E088E390E00E946B
:100860008905CF910895CF93C82F21E043E067E336
:1008700070E088E390E00E94A205C11106C063E029
:1008800088E390E00E94950507C0C13029F463E039
:1008900088E390E00E948905CF91089581E00E944D
:1008A00033048AE18A95F1F700C080E00E943304A6
:1008B0008AE68A95F1F700C00895CF93C82F8BB3CD
:1008C0009CB38F7099272C2F207F822B9CBB8BBBD6
:1008D00080E00E94180480E00E94FD030E944E0404
:1008E00020E1C29FC00111249CBB8BBB0E944E041F
:1008F000CF910895CF93C82F8BB39CB38F70992756
:100900002C2F207F822B9CBB8BBB81E00E94180484
:1009100080E00E94FD030E944E0420E1C29FC001BE
:1009200011249CBB8BBB0E944E04CF91089521E003
:1009300042E067E370E088E390E00E94A20521E0D6
:1009400041E067E370E088E390E00E94A20521E0C7
:1009500043E067E370E088E390E00E94A20521E0B5
:1009600044E06AE370E08BE390E00E94A20521E09E
:1009700045E06AE370E08BE390E00E94A20521E08D
:1009800046E06AE370E08BE390E00E94A20521E07C
:1009900047E06AE370E08BE390E00E94A20580E00C
:1009A0000E9433048FE39FE10197F1F700C000003C
:1009B00083E30E945D048FE891E00197F1F700C0A6
:1009C000000082E30E945D048FE891E00197F1F757
:1009D00000C0000088E20E945D048FE891E001976A
:1009E000F1F700C000008FE00E945D048FE891E005
:1009F0000197F1F700C0000081E00E945D048FE3E1
:100A00009FE10197F1F700C0000086E00E945D04BD
:100A10008FE891E00197F1F700C00000089581E0B0
:100A20000E945D048FE39FE10197F1F700C0000091
:100A300086E00E945D048FE891E00197F1F700C025
:100A40000000089521E045E061E370E082E390E07A
:100A50000E94A20521E046E061E370E082E390E0BD
:100A60000E94A20521E047E061E370E082E390E0AC
:100A70000E94A20521E044E061E370E082E390E09F
:100A80000E94A20521E043E061E370E082E390E090
:100A90000E94A20520E042E061E370E082E390E082
:100AA0000E94A20520E040E06AE370E08BE390E062
:100AB0000E94A20520E041E06AE370E08BE390E051
:100AC0000E94A2050E9497040E940F0580E80E94E0
:100AD0005D0481E60E947A046CE770E080E090E0BB
:100AE0000E94DD0580917C008F3F41F410927B00D5
:100AF00060E080E090E00E94D10506C06BE770E006
:100B000080E090E00E94DD058AE790E00E9471039A
:100B1000FBCFFC01408121E030E002C0220F331FF7
:100B20006A95E2F7242B20830895FC01908121E04F
:100B300030E002C0220F331F6A95E2F72095292387
:100B400020830895211112C0FB01508121E030E083
:100B500002C0220F331F4A95E2F7322F309535231A
:100B60003083FC013081232B20830895213059F4F8
:100B7000FB01208181E090E002C0880F991F4A9517
:100B8000E2F7822B80830895FC01208181E090E0D0
:100B900002C0880F991F6A95E2F78223FA018083C9
:100BA0000895E199FECF07B600FCFDCF8EBB9FBB39
:100BB0006DBB84E08CBBE19A0895E199FECF8EBBBA
:100BC0009FBBE09A8DB3FB0180830895F894FFCF1B
:100BD0006F73424123393633303835322A37343156
:00000001FF
