:100000000C942A000C9434000C9434000C943400AA
:100010000C9434000C9434000C9434000C94340090
:100020000C9434000C9434000C9434000C94340080
:100030000C9434000C9434000C9434000C94340070
:100040000C9434000C9434000C9434000C94340060
:100050000C94340011241FBECFE5D8E0DEBFCDBF25
:100060000E94A3000C94C5010C940000E82FF0E05E
:10007000808121E030E002C0220F331F6A95E2F751
:10008000282B208381E00895E82FF0E0808121E093
:1000900030E002C0220F331F6A95E2F72095282333
:1000A000208381E0089541110FC0E82FF0E02291F4
:1000B00081E090E002C0880F991F6A95E2F7809571
:1000C0008223808381E00895413071F4E82FF0E0CD
:1000D000229181E090E002C0880F991F6A95E2F7B3
:1000E000822B808381E0089580E00895CF93DF9391
:1000F0001F92CDB7DEB71982E82FF0E0329720814A
:1001000081E090E002C0880F991F6A95E2F7822390
:100110008983998181E0911101C080E00F90DF9186
:10012000CF91089564E085E30E94440065E085E393
:100130000E94440066E085E30E94440067E085E396
:100140000E944400089541E062E085E30E9453006C
:1001500041E063E085E30E94530041E064E085E311
:100160000E94530041E065E085E30E94530041E0B6
:1001700066E085E30E94530041E067E085E30E946A
:10018000530040E060E082E30E94530040E061E001
:1001900082E30E94530040E062E082E30E94530049
:1001A00062E085E30E94360063E085E30E9444003C
:1001B00064E085E30E94440065E085E30E9444001A
:1001C00066E085E30E94440067E085E30E94440006
:1001D00085B385BBC0E060E082E30E947600813099
:1001E00099F52FEF30E782E0215030408040E1F771
:1001F00000C0000060E082E30E947600813021F5BB
:10020000C93079F40E94920085B385BB9FEF20E747
:1002100032E0915020403040E1F700C00000C0E0E3
:1002200013C0CF5F0E94920025B330E1C39FC0018D
:100230001124822B85BB8FEF90E722E08150904004
:100240002040E1F700C0000061E082E30E947600F8
:10025000813009F074C03FEF80E792E03150804078
:100260009040E1F700C0000061E082E30E94760068
:10027000813009F064C0C1114FC062E085E30E9483
:1002800044002FEF35EA8EE0215030408040E1F706
:1002900000C0000062E085E30E9436009FEF25EA7F
:1002A0003EE0915020403040E1F700C0000062E0A5
:1002B00085E30E9444008FEF95EA2EE08150904044
:1002C0002040E1F700C0000062E085E30E943600B4
:1002D0003FEF85EA9EE0315080409040E1F700C05A
:1002E000000062E085E30E9444002FEF35EA8EE0D3
:1002F000215030408040E1F700C0000062E085E31B
:100300000E9436009FEF25EA3EE0915020403040A9
:10031000E1F700C0000013C0C1500E94920025B355
:1003200030E1C39FC0011124822B85BB8FEF90E782
:1003300022E0815090402040E1F700C0000062E0E0
:1003400082E30E947600813009F045CF3FEF80E7DD
:1003500092E0315080409040E1F700C0000062E040
:1003600082E30E947600813009F035CF0E9492002E
:1003700085B385BB2FEF30E782E0215030408040CD
:0E038000E1F700C00000C0E026CFF894FFCFE8
:00000001FF
