:100000000C942A000C9434000C9434000C943400AA
:100010000C9434000C9434000C9434000C94340090
:100020000C9434000C9434000C9434000C94340080
:100030000C9434000C9434000C9434000C94340070
:100040000C9434000C9434000C9434000C94340060
:100050000C94340011241FBECFE5D8E0DEBFCDBF25
:100060000E9485000C94BD000C940000E82FF0E085
:10007000808121E030E002C0220F331F6A95E2F751
:10008000282B208381E00895E82FF0E0808121E093
:1000900030E002C0220F331F6A95E2F72095282333
:1000A000208381E0089541110FC0E82FF0E02291F4
:1000B00081E090E002C0880F991F6A95E2F7809571
:1000C0008223808381E00895413071F4E82FF0E0CD
:1000D000229181E090E002C0880F991F6A95E2F7B3
:1000E000822B808381E0089580E00895E82FF0E07E
:1000F0003297208181E090E002C0880F991F6A95B5
:10010000E2F78223FA0180830895CF93DF931F9251
:10011000CDB7DEB7198241E065E082E30E9453006B
:1001200040E060E082E30E94530065E082E30E94C9
:100130004400AE014F5F5F4F60E082E30E947600B3
:100140002FEF80E792E0215080409040E1F700C01F
:100150000000AE014F5F5F4F60E082E30E947600D7
:100160008981882329F065E082E30E943600E1CF8F
:0E01700065E082E30E944400DCCFF894FFCFEC
:00000001FF
